:03000000020006F5
:03005F0002000399
:030003000200B543
:100062007C607DEA7E007F001CBCFF091DBDFF0590
:100072001EBEFF011FEC4D4E4F70ED00227F008F20
:10008200068EF005F07401800225E0D5F0FBF590B4
:100092007B607CEA7D007E001BBBFF091CBCFF0568
:1000A2001DBDFF011EEB4C4D4E70ED000FBF080051
:1000B20040CD2243C62D75BAFF7590FF7C607DEA64
:1000C2007E007F001CBCFF091DBDFF051EBEFF0197
:1000D2001FEC4D4E4F70ED007C607DEA7E007F008C
:1000E2001CBCFF091DBDFF051EBEFF011FEC4D4ECE
:1000F2004F70ED007C607DEA7E007F001CBCFF0932
:100102001DBDFF051EBEFF011FEC4D4E4F70ED00E1
:100112007C607DEA7E007F001CBCFF091DBDFF05DF
:100122001EBEFF011FEC4D4E4F70ED007590AA7C74
:10013200607DEA7E007F001CBCFF091DBDFF051E1D
:10014200BEFF011FEC4D4E4F70ED007C607DEA7EDC
:10015200007F001CBCFF091DBDFF051EBEFF011F65
:10016200EC4D4E4F70ED007C607DEA7E007F001CFE
:10017200BCFF091DBDFF051EBEFF011FEC4D4E4F0A
:1001820070ED007C607DEA7E007F001CBCFF091DD3
:10019200BDFF051EBEFF011FEC4D4E4F70ED0075F9
:1001A20090557C607DEA7E007F001CBCFF091DBD6E
:1001B200FF051EBEFF011FEC4D4E4F70ED007C602F
:1001C2007DEA7E007F001CBCFF091DBDFF051EBE2F
:1001D200FF011FEC4D4E4F70ED007C607DEA7E000A
:1001E2007F001CBCFF091DBDFF051EBEFF011FECE9
:1001F2004D4E4F70ED007C607DEA7E007F001CBC9E
:10020200FF091DBDFF051EBEFF011FEC4D4E4F70C5
:10021200ED007590F07C607DEA7E007F001CBCFFE3
:10022200091DBDFF051EBEFF011FEC4D4E4F70EDB7
:10023200007C607DEA7E007F001CBCFF091DBDFFC3
:10024200051EBEFF011FEC4D4E4F70ED007C607D20
:10025200EA7E007F001CBCFF091DBDFF051EBEFF1C
:10026200011FEC4D4E4F70ED007C607DEA7E007FF9
:10027200001CBCFF091DBDFF051EBEFF011FEC4D8A
:100282004E4F70ED0075900F7C607DEA7E007F001E
:100292001CBCFF091DBDFF051EBEFF011FEC4D4E1C
:1002A2004F70ED007C607DEA7E007F001CBCFF0980
:1002B2001DBDFF051EBEFF011FEC4D4E4F70ED0030
:1002C2007C607DEA7E007F001CBCFF091DBDFF052E
:1002D2001EBEFF011FEC4D4E4F70ED007C607DEAAB
:1002E2007E007F001CBCFF091DBDFF051EBEFF0175
:0D02F2001FEC4D4E4F70ED0012007F80FBA1
:06003500E478FFF6D8FD9F
:100013007900E94400601B7A00900303780075A01F
:1000230006E493F2A308B8000205A0D9F4DAF27546
:02003300A0FF2C
:10003B007800E84400600A790075A006E4F309D85B
:10004B00FC7800E84400600C7900900600E4F0A313
:04005B00D8FCD9FAFA
:0D0006007581071202FFE58260030200030E
:0402FF0075820022E2
:00000001FF
