:03000000020006F5
:03005F0002000399
:0300030002008573
:10006200AF83E582900600F0EFA3F0900600E0FE79
:10007200A3E08E821200D3900000221200CA7E00FA
:100082008E83221200A21200BD7495C0E0740BC0D0
:10009200E07480C0E012013315811581158180FE64
:0E0B950048656C6C6F20576F726C64210A000B
:1000A200C29FD29EC2CDC2CC75892043878043C9EC
:1000B200A0758DD9D28ED299D29C2243C60143C457
:1000C2000843C50C43CE102210980280FB8599820A
:1000D20022E582900602F010990280FB900602E06F
:0300E200F599226B
:06003500E478FFF6D8FD9F
:100013007900E94400601B7A00900BAE783C75A030
:1000230006E493F2A308B8000205A0D9F4DAF27546
:02003300A0FF2C
:10003B007800E84400600A790075A006E4F309D85B
:10004B00FC783CE84400600C7901900600E4F0A3D6
:04005B00D8FCD9FAFA
:1000E500C0128581127E008E83120062D01222AF6B
:1000F500F0AE83E582900604F0EEA3F0EFA3F09056
:100105000604E0FDA3E0FEA3E0FF900603E0FC90FB
:100115000618E4F0A3F0A3F090061BEDF0EEA3F0B3
:10012500EFA3F090061EECF09000E502023CC01231
:10013500E581F51224FBFF900618E4F0A3F0A3F087
:10014500E51224FBF890061BE6F008E6A3F008E6A6
:10015500A3F090061EEFF09000E512023CD01222AB
:10016500E582900614F0E0FF90060AE0C0E0A3E007
:10017500C0E0A3E0C0E0120180800D900608E0C059
:10018500E0A3E0C0E08F82221581158115819006DC
:1001950012E02401F0A3E03400F022E58290061578
:1001A500F0E02430FF24C6500D74072FFF9006079A
:1001B500E060034307208F82020165E58290061601
:1001C500F0E0FFC4540FF582C0071201A0D0075319
:1001D500070F8F820201A0E582900617F090060DA9
:1001E500E0FCA3E0FDA3E0FEA3E0FF900611E0FB29
:1001F500751320900617E0F98B00E828F8EF2354D3
:100205000148FBEC2CFCED33FDEE33FEEF33FFC371
:10021500EB994007EBC399FB430401E51314FA8AF4
:100225001370D590060DECF0EDA3F0EEA3F0EFA35F
:10023500F0900611EBF022AF83E58290061FF0EFF8
:10024500A3F090061FE0FEA3E0FF900608EEF0EF96
:10025500A3F0900618E0FDA3E0FEA3E0FF90060AD8
:10026500EDF0EEA3F0EFA3F0900612E4F0A3F0900A
:10027500061BE0FDA3E0FEA3E0FF8D828E838FF0D9
:10028500120B75FC90061B74012DF0E43EA3F0EFF4
:10029500A3F0EC7003020B31BC25028003020B298D
:1002A500900621E4F0900622F0900623F0900624B3
:1002B500F0900625F0900626F0900627F090062887
:1002C500F090062AF090062BF0A3F090062D14F07E
:1002D500A3F090061BE0FDA3E0FEA3E0FF8D828E58
:1002E500838FF0120B75FBA3AD82AE8390061BEDD9
:1002F500F0EEA3F0EFA3F0900631EBF0BB25088BF1
:1003050082120165020274BB300050030203D5EB73
:1003150024C650030203D590062DE0F508A3E0F5A9
:100325000974FFB50863B50960C005C006C007902C
:10033500062BE0FAA3E0FF90063AEAF0EFA3F0906F
:10034500000AC005C003120B55AE82AF83D003D09F
:10035500058B027D00EA2EFEED3FFFEE24D0FEEF79
:1003650034FFFF90062BEEF0EFA3F0D007D006D0B8
:100375000590062BE0F5F0A3E045F060030202E2EC
:100385009006227401F00202E2C005C006C0079083
:10039500063AE508F0E509A3F090000AC006C00595
:1003A500C003120B55AA82AF83D003D005D0067EB9
:1003B50000EB2AFAEE3FFFEA24D0FAEF34FFFF9074
:1003C500062DEAF0EFA3F0D007D006D0050202E231
:1003D500900631E0FBBB2E2FC005C006C007900676
:1003E5002DE0FAA3E0FFBAFF05BFFF028009D007A1
:1003F500D006D0050202E2D007D006D00590062D22
:10040500E4F0A3F00202E2BB61004014EB24854056
:100415000F90063174DF5BF09006077401F08005DC
:10042500900607E4F0900631E0FBBB20028075BB27
:100435002B028067BB2D028059BB4202806FBB43F4
:1004450002807CBB44030206CCBB46030206F2BB1A
:1004550048030202E2BB49030206CCBB4A0302027F
:10046500E2BB4C028050BB4F030206DABB500302CD
:10047500063ABB53028077BB54030202E2BB550325
:100485000206E2BB58030206EABB5A030202E20275
:1004950006FA9006217401F00202E2900623740127
:1004A500F00202E29006247401F00202E2900626B0
:1004B5007401F00202E29006277401F00202E29054
:1004C5000626E0600E90061EE014F9F0900631E76E
:1004D500F0800F90061EE024FEFFF08F019006319C
:1004E500E7F0900631E0F5821201650207099006F2
:1004F5001EE024FDFFF08F018705098706098707A0
:10050500191990060DEDF0EEA3F0EFA3F08D828E94
:10051500838FF0120B3D85820885830990062DE0B7
:10052500FAA3E0FDBAFF0DBDFF0A90062DE508F020
:10053500E509A3F0900621E0704B90062BE0FAA3A5
:10054500E0FDC3E5089AE5099D503A90062BEAC3FC
:100555009508F0ED9509A3F090062BE0FAA3E0FDD0
:100565008A068D071ABAFF011DEE4F6010758220AD
:10057500C005C002120165D002D00580E390062BAC
:10058500EAF0EDA3F090062DE0F50BA3E0F50C9055
:10059500060DE0FAA3E0FDA3E0FF8A828D838FF0CC
:1005A500120B75F50A603CC3E4950B7480850CF05D
:1005B50063F08095F0502C150B74FFB50B02150CEC
:1005C500850A8212016590060DE0FAA3E0FDA3E01D
:1005D500FF0ABA00010D90060DEAF0EDA3F0EFA3B6
:1005E500F080AC900621E0700302070990062BE02D
:1005F500FEA3E0FFC3E5089EE5099F400302070946
:1006050090062BEEC39508F0EF9509A3F090062B05
:10061500E0FEA3E0FF8E028F051EBEFF011FEA4D1F
:100625007003020701758220C007C006120165D05C
:1006350006D00780E090061EE024FDFDF08D0187C1
:100645000D09870E09870F191990060DE50DF0E5BF
:100655000EA3F0E50FA3F090060FE0FDBD8000406E
:10066500089006317443F08020BD60004008900674
:10067500317450F08013BD40004008900631744934
:10068500F080069006317458F0900631E0FDF58251
:10069500C00512016575823A120165758230120135
:1006A50065758278120165D005BD4902800EBD5081
:1006B50002800990060EE0F5821201C090060DE059
:1006C500F5821201C0803D9006257401F090062A3E
:1006D500740AF0802F90062A7408F0802790062A65
:1006E500740AF0801F90062A7410F080179006286F
:1006F5007401F0800F8B82120165800890062BEE45
:10070500F0EFA3F0900628E0607190061EE024FC4F
:10071500FFF08F01870309870509870609870719F0
:10072500191990060DEBF0EDA3F0EEA3F0EFA3F091
:1007350090060D74A3F0740BA3F07480A3F09006DB
:100745000DE0F50DA3E0F50EA3E0F50F7401250D01
:10075500FAE4350EFBAF0F90060DEAF0EBA3F0EFD0
:10076500A3F0850D82850E83850FF0120B75FF7042
:10077500030202748F8212016580C390062AE0701D
:1007850003020274900626E0604790061EE014F905
:10079500F087077E007D007B0090060DEFF0EEA34D
:1007A500F0EDA3F0EBA3F0900625E0600302084C02
:1007B50090060DE0FBA3E0A3E0A3E07D007E007FB3
:1007C5000090060DEBF0EDA3F0EEA3F0EFA3F080A3
:1007D50076900627E0602890061EE024FCFFF08F47
:1007E50001870309870509870609870719191990DC
:1007F500060DEBF0EDA3F0EEA3F0EFA3F08048902B
:10080500061EE024FEFFF08F01870609870719EF12
:100815003395E0FDFB90060DEEF0EFA3F0EDA3F0B0
:10082500EBA3F0900625E0701E90060DE0FBA3E01B
:10083500FDA3E0A3E07E007F0090060DEBF0EDA3A5
:10084500F0EEA3F0EFA3F0900625E0604190060DD1
:10085500E0FBA3E0FDA3E0FEA3E0FF30E72B90065D
:100865000DE0FBA3E0FDA3E0FEA3E0FFC3E49BFBDB
:10087500E49DFDE49EFEE49FFF90060DEBF0EDA3E5
:10088500F0EEA3F0EFA3F08005900625E4F09006C6
:10089500297401F090062AE0F50B751037751106DD
:1008A500E4F508F509900611E4F0850B821201DCE8
:1008B500900629E07026900611E0C4F50D8510829A
:1008C500851183E0FFE50D4207851082851183EFD1
:1008D500F0151074FFB510021511800C900611E08B
:1008E500FF851082851183F00508E4B50802050926
:1008F500900629E0B40100E433F090060DE0FAA378
:10090500E0FBA3E0FEA3E0FFEA4B4E4F7097900695
:1009150038E510F0E511A3F090062FE508F0E5099C
:10092500A3F090062BE0F5F0A3E045F070099006E2
:100935002B7401F0E4A3F0900622E0FFE0704790ED
:100945000621E0704185081085091190062BE0FA13
:10095500A3E0FBC007AF100F8F067F00C3EE9AEF31
:100965009BD0075019758220C007C003C002120131
:1009750065D002D003D0071ABAFF011B80D59006B7
:100985002BEAF0EBA3F0900625E0602075822DC0E0
:1009950007120165D00790062BE024FFFDA3E03484
:1009A500FFFE90062BEDF0EEA3F0805690062FE0AB
:1009B500F5F0A3E045F0604A900623E060207582DB
:1009C5002BC007120165D00790062BE024FFFDA37D
:1009D500E034FFFE90062BEDF0EEA3F080249006A8
:1009E50024E0601E758220C007120165D0079006BD
:1009F5002BE024FFFDA3E034FFFE90062BEDF0EE87
:100A0500A3F0900621E0704890062FE0F510A3E0D2
:100A1500F51190062BE0FAA3E0FBC0078A068B07C9
:100A25001ABAFF011BC3E5109EE5119FD00750536D
:100A3500EF60067D307E0080047D207E008D82C0C3
:100A450007C003C002120165D002D003D00780CAD7
:100A550090062BE0FEA3E0FF90062FE0F510A3E043
:100A6500F511C3E5109EE5119F500F90062BEEC3BF
:100A75009510F0EF9511A3F0801190062BE4F0A3EB
:100A8500F0800890062BEAF0EBA3F0900638E0FE24
:100A9500A3E0FF90062FE0F510A3E0F511AA10AD35
:100AA50011151074FFB510021511EA4D6045900639
:100AB50029E0B40100E433F0900629E070140EBE7D
:100AC50000010F8E828F83E0C4540FFD900611F054
:100AD500800E8E828F83E0FD53050F900611EDF099
:100AE500900611E0F582C007C0061201A0D006D01D
:100AF5000780AA900621E0700302027490062BE09D
:100B0500FEA3E0FF8E038F051EBEFF011FEB4D7098
:100B150003020274758220C007C006120165D00663
:100B2500D00780E08C82120165020274900612E003
:080B3500FEA3E08E82F583228D
:0B0BA3003C4E4F20464C4F41543E009A
:100B3D00AA82AB83120B756003A380F8C3E5829A7A
:100B4D00F582E5839BF58322AA83AB828BF0900619
:100B5D003AE0A4F8A9F08AF0E0A429F98BF0A3E01B
:080B6D00A429F58388822222ED
:0D000600758113120B91E582600302000367
:100B750020F71430F6148883A88220F507E6A883A9
:100B850075830022E280F7E49322E0227582002239
:00000001FF
